{
  "_format": "hh-sol-artifact-1",
  "contractName": "MultiSigWallet",
  "sourceName": "contracts/MultiSigWallet.sol",
  "abi": [
    {
      "inputs": [
        {
          "internalType": "address[]",
          "name": "initialOwners",
          "type": "address[]"
        },
        {
          "internalType": "uint256",
          "name": "initialThreshold",
          "type": "uint256"
        }
      ],
      "stateMutability": "payable",
      "type": "constructor"
    },
    {
      "anonymous": false,
      "inputs": [
        {
          "indexed": true,
          "internalType": "address",
          "name": "owner",
          "type": "address"
        },
        {
          "indexed": true,
          "internalType": "uint256",
          "name": "proposalId",
          "type": "uint256"
        }
      ],
      "name": "Approved",
      "type": "event"
    },
    {
      "anonymous": false,
      "inputs": [
        {
          "indexed": true,
          "internalType": "address",
          "name": "sender",
          "type": "address"
        },
        {
          "indexed": false,
          "internalType": "uint256",
          "name": "amount",
          "type": "uint256"
        }
      ],
      "name": "Deposit",
      "type": "event"
    },
    {
      "anonymous": false,
      "inputs": [
        {
          "indexed": true,
          "internalType": "uint256",
          "name": "proposalId",
          "type": "uint256"
        },
        {
          "indexed": false,
          "internalType": "bytes",
          "name": "result",
          "type": "bytes"
        }
      ],
      "name": "Executed",
      "type": "event"
    },
    {
      "anonymous": false,
      "inputs": [
        {
          "indexed": true,
          "internalType": "address",
          "name": "owner",
          "type": "address"
        }
      ],
      "name": "OwnerAdded",
      "type": "event"
    },
    {
      "anonymous": false,
      "inputs": [
        {
          "indexed": true,
          "internalType": "address",
          "name": "owner",
          "type": "address"
        }
      ],
      "name": "OwnerRemoved",
      "type": "event"
    },
    {
      "anonymous": false,
      "inputs": [
        {
          "indexed": true,
          "internalType": "uint256",
          "name": "proposalId",
          "type": "uint256"
        },
        {
          "indexed": true,
          "internalType": "address",
          "name": "proposer",
          "type": "address"
        },
        {
          "indexed": false,
          "internalType": "address",
          "name": "to",
          "type": "address"
        },
        {
          "indexed": false,
          "internalType": "uint256",
          "name": "value",
          "type": "uint256"
        },
        {
          "indexed": false,
          "internalType": "uint8",
          "name": "riskScore",
          "type": "uint8"
        }
      ],
      "name": "ProposalCreated",
      "type": "event"
    },
    {
      "anonymous": false,
      "inputs": [
        {
          "indexed": true,
          "internalType": "address",
          "name": "owner",
          "type": "address"
        },
        {
          "indexed": true,
          "internalType": "uint256",
          "name": "proposalId",
          "type": "uint256"
        }
      ],
      "name": "Revoked",
      "type": "event"
    },
    {
      "anonymous": false,
      "inputs": [
        {
          "indexed": false,
          "internalType": "uint256",
          "name": "threshold",
          "type": "uint256"
        }
      ],
      "name": "ThresholdUpdated",
      "type": "event"
    },
    {
      "inputs": [
        {
          "internalType": "address",
          "name": "newOwner",
          "type": "address"
        }
      ],
      "name": "addOwner",
      "outputs": [],
      "stateMutability": "nonpayable",
      "type": "function"
    },
    {
      "inputs": [
        {
          "internalType": "uint256",
          "name": "proposalId",
          "type": "uint256"
        }
      ],
      "name": "approve",
      "outputs": [],
      "stateMutability": "nonpayable",
      "type": "function"
    },
    {
      "inputs": [
        {
          "internalType": "uint256",
          "name": "",
          "type": "uint256"
        },
        {
          "internalType": "address",
          "name": "",
          "type": "address"
        }
      ],
      "name": "approvedBy",
      "outputs": [
        {
          "internalType": "bool",
          "name": "",
          "type": "bool"
        }
      ],
      "stateMutability": "view",
      "type": "function"
    },
    {
      "inputs": [
        {
          "internalType": "uint256",
          "name": "proposalId",
          "type": "uint256"
        }
      ],
      "name": "execute",
      "outputs": [
        {
          "internalType": "bytes",
          "name": "result",
          "type": "bytes"
        }
      ],
      "stateMutability": "nonpayable",
      "type": "function"
    },
    {
      "inputs": [],
      "name": "getOwners",
      "outputs": [
        {
          "internalType": "address[]",
          "name": "",
          "type": "address[]"
        }
      ],
      "stateMutability": "view",
      "type": "function"
    },
    {
      "inputs": [
        {
          "internalType": "address",
          "name": "",
          "type": "address"
        }
      ],
      "name": "isOwner",
      "outputs": [
        {
          "internalType": "bool",
          "name": "",
          "type": "bool"
        }
      ],
      "stateMutability": "view",
      "type": "function"
    },
    {
      "inputs": [
        {
          "internalType": "uint256",
          "name": "",
          "type": "uint256"
        }
      ],
      "name": "owners",
      "outputs": [
        {
          "internalType": "address",
          "name": "",
          "type": "address"
        }
      ],
      "stateMutability": "view",
      "type": "function"
    },
    {
      "inputs": [],
      "name": "proposalCount",
      "outputs": [
        {
          "internalType": "uint256",
          "name": "",
          "type": "uint256"
        }
      ],
      "stateMutability": "view",
      "type": "function"
    },
    {
      "inputs": [
        {
          "internalType": "uint256",
          "name": "",
          "type": "uint256"
        }
      ],
      "name": "proposals",
      "outputs": [
        {
          "internalType": "address",
          "name": "to",
          "type": "address"
        },
        {
          "internalType": "uint256",
          "name": "value",
          "type": "uint256"
        },
        {
          "internalType": "bytes",
          "name": "data",
          "type": "bytes"
        },
        {
          "internalType": "uint256",
          "name": "approvals",
          "type": "uint256"
        },
        {
          "internalType": "bool",
          "name": "executed",
          "type": "bool"
        },
        {
          "internalType": "uint8",
          "name": "riskScore",
          "type": "uint8"
        },
        {
          "internalType": "address",
          "name": "proposer",
          "type": "address"
        },
        {
          "internalType": "uint256",
          "name": "createdAt",
          "type": "uint256"
        }
      ],
      "stateMutability": "view",
      "type": "function"
    },
    {
      "inputs": [
        {
          "internalType": "address",
          "name": "to",
          "type": "address"
        },
        {
          "internalType": "uint256",
          "name": "value",
          "type": "uint256"
        },
        {
          "internalType": "bytes",
          "name": "data",
          "type": "bytes"
        },
        {
          "internalType": "uint8",
          "name": "riskScore",
          "type": "uint8"
        }
      ],
      "name": "propose",
      "outputs": [
        {
          "internalType": "uint256",
          "name": "proposalId",
          "type": "uint256"
        }
      ],
      "stateMutability": "nonpayable",
      "type": "function"
    },
    {
      "inputs": [
        {
          "internalType": "address",
          "name": "ownerToRemove",
          "type": "address"
        }
      ],
      "name": "removeOwner",
      "outputs": [],
      "stateMutability": "nonpayable",
      "type": "function"
    },
    {
      "inputs": [
        {
          "internalType": "uint256",
          "name": "proposalId",
          "type": "uint256"
        }
      ],
      "name": "revoke",
      "outputs": [],
      "stateMutability": "nonpayable",
      "type": "function"
    },
    {
      "inputs": [],
      "name": "threshold",
      "outputs": [
        {
          "internalType": "uint256",
          "name": "",
          "type": "uint256"
        }
      ],
      "stateMutability": "view",
      "type": "function"
    },
    {
      "inputs": [
        {
          "internalType": "uint256",
          "name": "newThreshold",
          "type": "uint256"
        }
      ],
      "name": "updateThreshold",
      "outputs": [],
      "stateMutability": "nonpayable",
      "type": "function"
    },
    {
      "stateMutability": "payable",
      "type": "receive"
    }
  ],
  "bytecode": "0x6080604052604051620018c0380380620018c0833981016040819052620000269162000244565b60008251116200006f5760405162461bcd60e51b815260206004820152600f60248201526e1bdddb995c9cc81c995c5d5a5c9959608a1b60448201526064015b60405180910390fd5b60008111801562000081575081518111155b620000bf5760405162461bcd60e51b815260206004820152600d60248201526c189859081d1a1c995cda1bdb19609a1b604482015260640162000066565b60005b825181101562000206576000838281518110620000e357620000e36200031e565b6020026020010151905060006001600160a01b0316816001600160a01b0316036200013e5760405162461bcd60e51b815260206004820152600a6024820152693d32b9379037bbb732b960b11b604482015260640162000066565b6001600160a01b03811660009081526001602052604090205460ff16156200019c5760405162461bcd60e51b815260206004820152601060248201526f6f776e6572206e6f7420756e6971756560801b604482015260640162000066565b6001600160a01b031660008181526001602081905260408220805460ff191682179055815480820183559180527f290decd9548b62a8d60345a988386fc84ba6bc95484008f6362f93160ef3e56390910180546001600160a01b03191690921790915501620000c2565b506002555062000334565b634e487b7160e01b600052604160045260246000fd5b80516001600160a01b03811681146200023f57600080fd5b919050565b600080604083850312156200025857600080fd5b82516001600160401b03808211156200027057600080fd5b818501915085601f8301126200028557600080fd5b81516020828211156200029c576200029c62000211565b8160051b604051601f19603f83011681018181108682111715620002c457620002c462000211565b604052928352818301935084810182019289841115620002e357600080fd5b948201945b838610156200030c57620002fc8662000227565b85529482019493820193620002e8565b97909101519698969750505050505050565b634e487b7160e01b600052603260045260246000fd5b61157c80620003446000396000f3fe6080604052600436106100e15760003560e01c806385667f1c1161007f578063b99de9d511610059578063b99de9d5146102da578063d7d7442f146102fa578063da35c6641461031a578063fe0d94c11461032f57600080fd5b806385667f1c1461025d578063a0e67e2b14610298578063b759f954146102ba57600080fd5b806320c5429b116100bb57806320c5429b146101b95780632f54bf6e146101d957806342cde4e8146102195780637065cb481461023d57600080fd5b8063013cf08b14610122578063025e7c271461015f578063173825d91461019757600080fd5b3661011d5760405134815233907fe1fffcc4923d04b559f4d29a8bfc6cda04eb5b0d3c460751c2402c5c5cc9109c9060200160405180910390a2005b600080fd5b34801561012e57600080fd5b5061014261013d366004611049565b61035c565b6040516101569897969594939291906110a8565b60405180910390f35b34801561016b57600080fd5b5061017f61017a366004611049565b610454565b6040516001600160a01b039091168152602001610156565b3480156101a357600080fd5b506101b76101b236600461111b565b61047e565b005b3480156101c557600080fd5b506101b76101d4366004611049565b610671565b3480156101e557600080fd5b506102096101f436600461111b565b60016020526000908152604090205460ff1681565b6040519015158152602001610156565b34801561022557600080fd5b5061022f60025481565b604051908152602001610156565b34801561024957600080fd5b506101b761025836600461111b565b6107d2565b34801561026957600080fd5b5061020961027836600461113d565b600460209081526000928352604080842090915290825290205460ff1681565b3480156102a457600080fd5b506102ad61092a565b6040516101569190611169565b3480156102c657600080fd5b506101b76102d5366004611049565b61098c565b3480156102e657600080fd5b5061022f6102f53660046111b6565b610aef565b34801561030657600080fd5b506101b7610315366004611049565b610db6565b34801561032657600080fd5b5060035461022f565b34801561033b57600080fd5b5061034f61034a366004611049565b610e5e565b604051610156919061125e565b6003818154811061036c57600080fd5b60009182526020909120600690910201805460018201546002830180546001600160a01b0390931694509092916103a290611271565b80601f01602080910402602001604051908101604052809291908181526020018280546103ce90611271565b801561041b5780601f106103f05761010080835404028352916020019161041b565b820191906000526020600020905b8154815290600101906020018083116103fe57829003601f168201915b50505050600383015460048401546005909401549293909260ff8083169350610100830416916201000090046001600160a01b03169088565b6000818154811061046457600080fd5b6000918252602090912001546001600160a01b0316905081565b3330146104a65760405162461bcd60e51b815260040161049d906112ab565b60405180910390fd5b6001600160a01b03811660009081526001602052604090205460ff166104de5760405162461bcd60e51b815260040161049d906112d6565b6001600160a01b0381166000908152600160205260408120805460ff191690555b6000548110156105f157816001600160a01b031660008281548110610526576105266112f9565b6000918252602090912001546001600160a01b0316036105e9576000805461055090600190611325565b81548110610560576105606112f9565b600091825260208220015481546001600160a01b0390911691908390811061058a5761058a6112f9565b6000918252602082200180546001600160a01b0319166001600160a01b0393909316929092179091558054806105c2576105c261133e565b600082815260209020810160001990810180546001600160a01b03191690550190556105f1565b6001016104ff565b50600054600254111561063a5760005460028190556040519081527fadfa8ecb21b6962ebcd0adbd9ab985b7b4c5b5eb3b0dead683171565c7bfe1719060200160405180910390a15b6040516001600160a01b038216907f58619076adf5bb0943d100ef88d52d7c3fd691b19d3a9071b555b651fbf418da90600090a250565b3360009081526001602052604090205460ff166106a05760405162461bcd60e51b815260040161049d906112d6565b60035481106106c15760405162461bcd60e51b815260040161049d90611354565b6000600382815481106106d6576106d66112f9565b60009182526020909120600690910201600481015490915060ff161561070e5760405162461bcd60e51b815260040161049d90611374565b600082815260046020908152604080832033845290915290205460ff166107665760405162461bcd60e51b815260206004820152600c60248201526b1b9bdd08185c1c1c9bdd995960a21b604482015260640161049d565b60008281526004602090815260408083203384529091528120805460ff191690556003820180546001929061079c908490611325565b9091555050604051829033907f713b90881ad62c4fa8ab6bd9197fa86481fc0c11b2edba60026514281b2dbac490600090a35050565b3330146107f15760405162461bcd60e51b815260040161049d906112ab565b6001600160a01b0381166108305760405162461bcd60e51b815260040161049d906020808252600490820152637a65726f60e01b604082015260600190565b6001600160a01b03811660009081526001602052604090205460ff16156108825760405162461bcd60e51b815260206004820152600660248201526565786973747360d01b604482015260640161049d565b6001600160a01b03811660008181526001602081905260408220805460ff191682179055815490810182558180527f290decd9548b62a8d60345a988386fc84ba6bc95484008f6362f93160ef3e5630180546001600160a01b03191690921790915560025490036108f35760016002555b6040516001600160a01b038216907f994a936646fe87ffe4f1e469d3d6aa417d6b855598397f323de5b449f765f0c390600090a250565b6060600080548060200260200160405190810160405280929190818152602001828054801561098257602002820191906000526020600020905b81546001600160a01b03168152600190910190602001808311610964575b5050505050905090565b3360009081526001602052604090205460ff166109bb5760405162461bcd60e51b815260040161049d906112d6565b60035481106109dc5760405162461bcd60e51b815260040161049d90611354565b6000600382815481106109f1576109f16112f9565b60009182526020909120600690910201600481015490915060ff1615610a295760405162461bcd60e51b815260040161049d90611374565b600082815260046020908152604080832033845290915290205460ff1615610a7d5760405162461bcd60e51b8152602060048201526007602482015266616c726561647960c81b604482015260640161049d565b60008281526004602090815260408083203384529091528120805460ff1916600190811790915560038301805491929091610ab9908490611396565b9091555050604051829033907ff13bfe0b6ec5df39265dccb0a01a09aa4162489c7a083dc6670bde0255d02ca790600090a35050565b3360009081526001602052604081205460ff16610b1e5760405162461bcd60e51b815260040161049d906112d6565b6001600160a01b038616610b5e5760405162461bcd60e51b8152602060048201526007602482015266746f207a65726f60c81b604482015260640161049d565b60028260ff161115610b9d5760405162461bcd60e51b8152602060048201526008602482015267626164207269736b60c01b604482015260640161049d565b6000604051806101000160405280886001600160a01b0316815260200187815260200186868080601f01602080910402602001604051908101604052809392919081815260200183838082843760009201829052509385525050506020808301829052604080840183905260ff881660608501523360808501524260a09094019390935260038054600181018255925283517fc2575a0e9e593c00f959f8c92f12db2869c3395a3b0502d05e2516446f71f85b600690930292830180546001600160a01b0319166001600160a01b03909216919091178155908401517fc2575a0e9e593c00f959f8c92f12db2869c3395a3b0502d05e2516446f71f85c8301559183015192935083927fc2575a0e9e593c00f959f8c92f12db2869c3395a3b0502d05e2516446f71f85d90910190610cd59082611410565b506060820151600380830191909155608083015160048301805460a086015160c08701516001600160a01b0316620100000262010000600160b01b031960ff929092166101000261ff00199515159590951661ffff1990931692909217939093179290921691909117905560e09092015160059091015554610d5990600190611325565b604080516001600160a01b038a1681526020810189905260ff8616818301529051919350339184917f4f90b8ee9fa0248b6d2b5347b898d6bf99b9c9d4e2ea28c0910ddd0776d68bbb919081900360600190a35095945050505050565b333014610dd55760405162461bcd60e51b815260040161049d906112ab565b600081118015610de757506000548111155b610e235760405162461bcd60e51b815260206004820152600d60248201526c189859081d1a1c995cda1bdb19609a1b604482015260640161049d565b60028190556040518181527fadfa8ecb21b6962ebcd0adbd9ab985b7b4c5b5eb3b0dead683171565c7bfe1719060200160405180910390a150565b3360009081526001602052604090205460609060ff16610e905760405162461bcd60e51b815260040161049d906112d6565b6003548210610eb15760405162461bcd60e51b815260040161049d90611354565b600060038381548110610ec657610ec66112f9565b60009182526020909120600690910201600481015490915060ff1615610efe5760405162461bcd60e51b815260040161049d90611374565b60025481600301541015610f4b5760405162461bcd60e51b81526020600482015260146024820152736e6f7420656e6f75676820617070726f76616c7360601b604482015260640161049d565b60048101805460ff1916600190811790915581549082015460405160009283926001600160a01b0390911691610f859060028701906114d0565b60006040518083038185875af1925050503d8060008114610fc2576040519150601f19603f3d011682016040523d82523d6000602084013e610fc7565b606091505b5091509150816110075760405162461bcd60e51b815260206004820152600b60248201526a18d85b1b0819985a5b195960aa1b604482015260640161049d565b847f2e733a17851169f232b3859260eb3ad2a086afd54e999eb4ea9afb7791702e4182604051611037919061125e565b60405180910390a2925050505b919050565b60006020828403121561105b57600080fd5b5035919050565b6000815180845260005b818110156110885760208185018101518683018201520161106c565b506000602082860101526020601f19601f83011685010191505092915050565b6001600160a01b03898116825260208201899052610100604083018190526000916110d58483018b611062565b60608501999099529615156080840152505060ff9390931660a0840152921660c082015260e001529392505050565b80356001600160a01b038116811461104457600080fd5b60006020828403121561112d57600080fd5b61113682611104565b9392505050565b6000806040838503121561115057600080fd5b8235915061116060208401611104565b90509250929050565b6020808252825182820181905260009190848201906040850190845b818110156111aa5783516001600160a01b031683529284019291840191600101611185565b50909695505050505050565b6000806000806000608086880312156111ce57600080fd5b6111d786611104565b945060208601359350604086013567ffffffffffffffff808211156111fb57600080fd5b818801915088601f83011261120f57600080fd5b81358181111561121e57600080fd5b89602082850101111561123057600080fd5b602083019550809450505050606086013560ff8116811461125057600080fd5b809150509295509295909350565b6020815260006111366020830184611062565b600181811c9082168061128557607f821691505b6020821081036112a557634e487b7160e01b600052602260045260246000fd5b50919050565b6020808252601190820152706f6e6c7920766961206d756c746973696760781b604082015260600190565b6020808252600990820152683737ba1037bbb732b960b91b604082015260600190565b634e487b7160e01b600052603260045260246000fd5b634e487b7160e01b600052601160045260246000fd5b818103818111156113385761133861130f565b92915050565b634e487b7160e01b600052603160045260246000fd5b602080825260069082015265189859081a5960d21b604082015260600190565b602080825260089082015267195e1958dd5d195960c21b604082015260600190565b808201808211156113385761133861130f565b634e487b7160e01b600052604160045260246000fd5b601f82111561140b576000816000526020600020601f850160051c810160208610156113e85750805b601f850160051c820191505b81811015611407578281556001016113f4565b5050505b505050565b815167ffffffffffffffff81111561142a5761142a6113a9565b61143e816114388454611271565b846113bf565b602080601f831160018114611473576000841561145b5750858301515b600019600386901b1c1916600185901b178555611407565b600085815260208120601f198616915b828110156114a257888601518255948401946001909101908401611483565b50858210156114c05787850151600019600388901b60f8161c191681555b5050505050600190811b01905550565b60008083546114de81611271565b600182811680156114f6576001811461150b5761153a565b60ff198416875282151583028701945061153a565b8760005260208060002060005b858110156115315781548a820152908401908201611518565b50505082870194505b5092969550505050505056fea2646970667358221220eb31602390a416afe2810f593a2b6c34e242b897db264c33d6aaa75904b461b764736f6c63430008180033",
  "linkReferences": {},
  "deployedLinkReferences": {}
}